{
  "contractName": "Token",
  "abi": [
    {
      "inputs": [],
      "stateMutability": "nonpayable",
      "type": "constructor"
    },
    {
      "inputs": [],
      "name": "name",
      "outputs": [
        {
          "internalType": "string",
          "name": "",
          "type": "string"
        }
      ],
      "stateMutability": "view",
      "type": "function"
    },
    {
      "inputs": [],
      "name": "symbol",
      "outputs": [
        {
          "internalType": "string",
          "name": "",
          "type": "string"
        }
      ],
      "stateMutability": "view",
      "type": "function"
    },
    {
      "inputs": [],
      "name": "totalSupply",
      "outputs": [
        {
          "internalType": "uint256",
          "name": "",
          "type": "uint256"
        }
      ],
      "stateMutability": "view",
      "type": "function"
    },
    {
      "inputs": [
        {
          "internalType": "address",
          "name": "to",
          "type": "address"
        },
        {
          "internalType": "uint256",
          "name": "amount",
          "type": "uint256"
        }
      ],
      "name": "transfer",
      "outputs": [],
      "stateMutability": "nonpayable",
      "type": "function"
    },
    {
      "inputs": [
        {
          "internalType": "address",
          "name": "account",
          "type": "address"
        }
      ],
      "name": "balanceOf",
      "outputs": [
        {
          "internalType": "uint256",
          "name": "",
          "type": "uint256"
        }
      ],
      "stateMutability": "view",
      "type": "function"
    }
  ],
  "bytecode": "0x60806040526040518060400160405280600e81526020017f426967204469636b20546f6b656e0000000000000000000000000000000000008152506000908051906020019061004f9291906100fb565b506040518060400160405280600381526020017f42445400000000000000000000000000000000000000000000000000000000008152506001908051906020019061009b9291906100fb565b50620f42406002553480156100af57600080fd5b50600254600360003373ffffffffffffffffffffffffffffffffffffffff1673ffffffffffffffffffffffffffffffffffffffff168152602001908152602001600020819055506101ff565b8280546101079061019e565b90600052602060002090601f0160209004810192826101295760008555610170565b82601f1061014257805160ff1916838001178555610170565b82800160010185558215610170579182015b8281111561016f578251825591602001919060010190610154565b5b50905061017d9190610181565b5090565b5b8082111561019a576000816000905550600101610182565b5090565b600060028204905060018216806101b657607f821691505b602082108114156101ca576101c96101d0565b5b50919050565b7f4e487b7100000000000000000000000000000000000000000000000000000000600052602260045260246000fd5b61072d8061020e6000396000f3fe608060405234801561001057600080fd5b50600436106100575760003560e01c806306fdde031461005c57806318160ddd1461007a57806370a082311461009857806395d89b41146100c8578063a9059cbb146100e6575b600080fd5b610064610102565b60405161007191906104b6565b60405180910390f35b610082610190565b60405161008f91906104f8565b60405180910390f35b6100b260048036038101906100ad91906103c9565b610196565b6040516100bf91906104f8565b60405180910390f35b6100d06101df565b6040516100dd91906104b6565b60405180910390f35b61010060048036038101906100fb91906103f2565b61026d565b005b6000805461010f90610628565b80601f016020809104026020016040519081016040528092919081815260200182805461013b90610628565b80156101885780601f1061015d57610100808354040283529160200191610188565b820191906000526020600020905b81548152906001019060200180831161016b57829003601f168201915b505050505081565b60025481565b6000600360008373ffffffffffffffffffffffffffffffffffffffff1673ffffffffffffffffffffffffffffffffffffffff168152602001908152602001600020549050919050565b600180546101ec90610628565b80601f016020809104026020016040519081016040528092919081815260200182805461021890610628565b80156102655780601f1061023a57610100808354040283529160200191610265565b820191906000526020600020905b81548152906001019060200180831161024857829003601f168201915b505050505081565b80600360003373ffffffffffffffffffffffffffffffffffffffff1673ffffffffffffffffffffffffffffffffffffffff1681526020019081526020016000205410156102ef576040517f08c379a00000000000000000000000000000000000000000000000000000000081526004016102e6906104d8565b60405180910390fd5b80600360003373ffffffffffffffffffffffffffffffffffffffff1673ffffffffffffffffffffffffffffffffffffffff168152602001908152602001600020600082825461033e9190610585565b9250508190555080600360008473ffffffffffffffffffffffffffffffffffffffff1673ffffffffffffffffffffffffffffffffffffffff1681526020019081526020016000206000828254610394919061052f565b925050819055505050565b6000813590506103ae816106c9565b92915050565b6000813590506103c3816106e0565b92915050565b6000602082840312156103db57600080fd5b60006103e98482850161039f565b91505092915050565b6000806040838503121561040557600080fd5b60006104138582860161039f565b9250506020610424858286016103b4565b9150509250929050565b600061043982610513565b610443818561051e565b93506104538185602086016105f5565b61045c816106b8565b840191505092915050565b600061047460188361051e565b91507f496e73756666696369656e74204244542062616c616e636500000000000000006000830152602082019050919050565b6104b0816105eb565b82525050565b600060208201905081810360008301526104d0818461042e565b905092915050565b600060208201905081810360008301526104f181610467565b9050919050565b600060208201905061050d60008301846104a7565b92915050565b600081519050919050565b600082825260208201905092915050565b600061053a826105eb565b9150610545836105eb565b9250827fffffffffffffffffffffffffffffffffffffffffffffffffffffffffffffffff0382111561057a5761057961065a565b5b828201905092915050565b6000610590826105eb565b915061059b836105eb565b9250828210156105ae576105ad61065a565b5b828203905092915050565b60006105c4826105cb565b9050919050565b600073ffffffffffffffffffffffffffffffffffffffff82169050919050565b6000819050919050565b60005b838110156106135780820151818401526020810190506105f8565b83811115610622576000848401525b50505050565b6000600282049050600182168061064057607f821691505b6020821081141561065457610653610689565b5b50919050565b7f4e487b7100000000000000000000000000000000000000000000000000000000600052601160045260246000fd5b7f4e487b7100000000000000000000000000000000000000000000000000000000600052602260045260246000fd5b6000601f19601f8301169050919050565b6106d2816105b9565b81146106dd57600080fd5b50565b6106e9816105eb565b81146106f457600080fd5b5056fea264697066735822122090e05fa8af60185c26f2a114a7f99ab64ddd8f6eb46613a9a832418bd7f284c464736f6c63430008000033",
  "immutableReferences": {},
  "source": "//SPDX-License-Identifier: MIT\npragma solidity ^0.8.0;\n\ncontract Token {\n    string public name = \"Big Dick Token\";\n    string public symbol = \"BDT\";\n    uint public totalSupply = 1000000;\n    mapping(address => uint) balances;\n\n    constructor() {\n        balances[msg.sender] = totalSupply;\n    }\n\n    function transfer(address to, uint amount) public {\n        require(balances[msg.sender] >= amount, \"Insufficient BDT balance\");\n        balances[msg.sender] -= amount;\n        balances[to] += amount;\n    }\n\n    function balanceOf(address account) public view returns (uint) {\n        return balances[account];\n    }\n}\n",
  "sourcePath": "/home/robriks/ConsensysAcademyBootCamp/react-tutorial2/react-dapp/contracts/Token.sol",
  "compiler": {
    "name": "solc",
    "version": "0.8.0+commit.c7dfd78e.Emscripten.clang"
  },
  "schemaVersion": "3.4.3",
  "updatedAt": "2021-10-14T01:03:12.919Z",
  "devdoc": {
    "kind": "dev",
    "methods": {},
    "version": 1
  },
  "userdoc": {
    "kind": "user",
    "methods": {},
    "version": 1
  }
}