{
  "contractName": "ProofOfExistence3",
  "abi": [
    {
      "constant": false,
      "inputs": [
        {
          "internalType": "string",
          "name": "document",
          "type": "string"
        }
      ],
      "name": "notarize",
      "outputs": [],
      "payable": false,
      "stateMutability": "nonpayable",
      "type": "function"
    },
    {
      "constant": true,
      "inputs": [
        {
          "internalType": "string",
          "name": "document",
          "type": "string"
        }
      ],
      "name": "proofFor",
      "outputs": [
        {
          "internalType": "bytes32",
          "name": "",
          "type": "bytes32"
        }
      ],
      "payable": false,
      "stateMutability": "pure",
      "type": "function"
    },
    {
      "constant": true,
      "inputs": [
        {
          "internalType": "string",
          "name": "document",
          "type": "string"
        }
      ],
      "name": "checkDocument",
      "outputs": [
        {
          "internalType": "bool",
          "name": "",
          "type": "bool"
        }
      ],
      "payable": false,
      "stateMutability": "view",
      "type": "function"
    }
  ],
  "bytecode": "0x608060405234801561001057600080fd5b5061037c806100206000396000f3fe608060405234801561001057600080fd5b50600436106100415760003560e01c806353fb9233146100465780637183616c14610119578063f6c1acdf14610192575b600080fd5b6100ff6004803603602081101561005c57600080fd5b810190808035906020019064010000000081111561007957600080fd5b82018360208201111561008b57600080fd5b803590602001918460018302840111640100000000831117156100ad57600080fd5b91908080601f016020809104026020016040519081016040528093929190818152602001838380828437600081840152601f19601f820116905080830192505050505050509192919290505050610261565b604051808215151515815260200191505060405180910390f35b6101906004803603602081101561012f57600080fd5b810190808035906020019064010000000081111561014c57600080fd5b82018360208201111561015e57600080fd5b8035906020019184600183028401116401000000008311171561018057600080fd5b9091929391929390505050610280565b005b61024b600480360360208110156101a857600080fd5b81019080803590602001906401000000008111156101c557600080fd5b8201836020820111156101d757600080fd5b803590602001918460018302840111640100000000831117156101f957600080fd5b91908080601f016020809104026020016040519081016040528093929190818152602001838380828437600081840152601f19601f8201169050808301925050505050505091929192905050506102df565b6040518082815260200191505060405180910390f35b60008061026d836102df565b9050610278816102f0565b915050919050565b60006102cf83838080601f016020809104026020016040519081016040528093929190818152602001838380828437600081840152601f19601f820116905080830192505050505050506102df565b90506102da81610319565b505050565b600081805190602001209050919050565b600080600083815260200190815260200160002060009054906101000a900460ff169050919050565b600160008083815260200190815260200160002060006101000a81548160ff0219169083151502179055505056fea265627a7a723158205d82d869555c412d580e6fa6ac8dd242fcbdfbae1b65027a8b7636221527d6a964736f6c63430005100032",
  "source": "// SPDX-License-Identifier: MIT\npragma solidity >=0.4.22 <0.9.0;\n\ncontract ProofOfExistence3 {\n  \n  mapping (bytes32 => bool) private proofs;\n\n  // store proof of existence in state\n  function storeProof(bytes32 proof) internal {\n    proofs[proof] = true;\n  }\n\n  //calculate and store proof of document\n  function notarize(string calldata document) external {\n    bytes32 proof = proofFor(document);\n    storeProof(proof);\n  }\n  \n  //helper function to get sha256\n  function proofFor(string memory document) pure public returns (bytes32) {\n    return keccak256(bytes(document));\n  }\n\n  //check if document has been notarized\n  function checkDocument(string memory document) public view returns (bool) {\n    bytes32 proof = proofFor(document);\n    return hasProof(proof);\n  }\n    \n  //helper function returns true if proof is stored in mapping  \n  function hasProof(bytes32 proof) internal view returns (bool) {\n    return proofs[proof];\n  }\n}\n",
  "sourcePath": "/home/robriks/ConsensysAcademyBootCamp/proof-of-existence/contracts/ProofOfExistence3.sol",
  "compiler": {
    "name": "solc",
    "version": "0.5.16+commit.9c3226ce.Emscripten.clang"
  },
  "schemaVersion": "3.4.3",
  "updatedAt": "2021-09-27T22:07:50.033Z",
  "networkType": "ethereum",
  "devdoc": {
    "methods": {}
  },
  "userdoc": {
    "methods": {}
  }
}